:020000040800F2
:1000000008480020D5010008DD010008DF010008D4
:10001000E1010008E3010008E5010008000000001C
:10002000000000000000000000000000E7010008E0
:10003000E901000800000000EB010008152C000891
:10004000EF010008EF010008EF010008EF010008D0
:10005000EF010008EF010008EF010008EF010008C0
:10006000EF010008EF010008EF010008EF010008B0
:10007000EF010008EF010008EF010008EF010008A0
:10008000EF010008EF010008EF010008EF01000890
:10009000EF010008EF010008EF010008EF01000880
:1000A000EF010008EF010008EF010008EF01000870
:1000B000EF010008EF010008EF010008EF01000860
:1000C000EF010008EF010008EF010008EF01000850
:1000D000EF010008EF010008EF010008E12D000822
:1000E000EF010008EF010008EF010008EF01000830
:1000F000EF010008EF010008EF010008EF01000820
:10010000EF010008EF010008EF010008EF0100080F
:10011000EF010008EF010008EF010008EF010008FF
:10012000EF010008EF010008EF010008EF010008EF
:1001300000F002F800F03FF80AA090E8000C8244BA
:100140008344AAF10107DA4501D100F034F8AFF297
:10015000090EBAE80F0013F0010F18BFFB1A43F0A5
:10016000010318479C610000BC610000103A24BFE5
:1001700078C878C1FAD8520724BF30C830C144BF0C
:1001800004680C607047000000230024002500264E
:10019000103A28BF78C1FBD8520728BF30C148BFEA
:1001A0000B607047642900F07180002070471FB514
:1001B0001FBD10B510BD00F001FA1146FFF7F7FFA3
:1001C00003F0DCFC00F01FFA03B4FFF7F2FF03BCFE
:1001D00000F022FA0948804709480047FEE7FEE799
:1001E000FEE7FEE7FEE7FEE7FEE7FEE7FEE7FEE7E7
:1001F00004480549054A064B70470000392C0008A1
:10020000310100080842002008480020084400206E
:10021000084400200FB41CB5074B06AA7B4469466E
:100220000090059800F0A9F90020694600F0B8F99F
:100230001CBC5DF814FB00008103000070B504468F
:1002400085690068C10601D5302600E02026C00778
:1002500007D070BDD4E9012130469047206A401C88
:1002600020626D1EF6D570BD70B5044685690078B4
:10027000C00707D170BDD4E9012120209047206A32
:10028000401C20626D1EF6D570BD00002DE9F041C6
:100290000646002410687529314616A510D0AFF324
:1002A0000080002802DA404213A507E031688A077F
:1002B00001D512A502E0490704D511A5012401E0EA
:1002C000AFF3008000210A2206F1240709E0B0FB09
:1002D000F2FCB0FBF2F302FB1C00303078541846FD
:1002E000491C0028F3D123462A463046BDE8F04198
:1002F00000F0E4B8000000002D0000002B0000001A
:10030000200000002DE9F05F894604464FF0000A06
:10031000DFF824B1FB44C0F820A02046E1688847FC
:1003200000287DD0252806D0D4E901219047206AF5
:10033000401C2062F1E700255F462046E1688847BF
:100340002028064607DB312E05D2B81910F8200CFC
:1003500008B10543F1E7A80701D525F00405C4F865
:100360001CA00027C4F818A02A2E09D0304602F09D
:100370002BFE38B304EB8708303EC8F8186019E04C
:1003800059F8041B204604EB87029161E168884715
:10039000012F064618D1E069002820DA25F0200553
:1003A0001DE0D8F8180000EB800006EB4000303864
:1003B000C8F818002046E1688847064602F004FEA7
:1003C0000028EED1012F0AD02E2E08D12046E16858
:1003D00088477F1C0646022F45F02005C4DBA06934
:1003E000002803DA404245F00105A061E80701D08A
:1003F00025F01005A6B1A6F14100192802D8203633
:1004000045F400654A463146204625604D46FFF7D3
:10041000C9FE60B1012807D0ED1D25F0070000E0FE
:1004200007E000F1080978E705F1040975E73046AF
:100430007AE7206ABDE8F09FD45F000010B5203A4B
:10044000C0F00B80B1E81850203AA0E81850B1E88D
:100450001850A0E81850BFF4F5AF5FEA027C24BF43
:10046000B1E81850A0E8185044BF18C918C0BDE83A
:1004700010405FEA827C24BF51F8043B40F8043B03
:1004800008BF7047D20728BF31F8023B48BF11F8B8
:10049000012B28BF20F8023B48BF00F8012B704712
:1004A00070477047704710B500F080F8006810BDC5
:1004B00010B5044600F07AF8046010BD2DE9F0474D
:1004C0000D4699469246044600F1240801688806C4
:1004D00004D5E06921F01001216000E00120A8426C
:1004E00001DD471B00E00027A1697A1902EB090032
:1004F000081AA0612078C00602D42046FFF79EFEAD
:10050000002608E0D4E901211AF806009047206A85
:10051000401C761C20624E45F4DB2078C0060AD5CC
:100520002046FFF78BFE06E0D4E9012130209047FA
:10053000206A401C2062381EA7F10107F4DC07E0A6
:10054000D4E9012118F805009047206A401C206278
:10055000281EA5F10105F3DC2046FFF785FE207873
:10056000000602D50220BDE8F0870120FBE700006D
:1005700001694A1C02610878704700B58FB0CDE967
:1005800001310021059105497944CDE90310114657
:100590006846FFF7B7FE0FB000BD0000E5FFFFFFA4
:1005A0000A6802F8010B0A607047000000487047B3
:1005B000A441002000487047A44100207546FFF781
:1005C000F9FFAE4605006946534620F00700854610
:1005D00018B020B5FFF70CFEBDE820404FF0000634
:1005E0004FF000074FF000084FF0000B21F007011B
:1005F000AC46ACE8C009ACE8C009ACE8C009ACE85E
:10060000C0098D46704710B50446AFF30080204600
:10061000BDE81040FFF7D8BD01491820ABBEFEE78A
:1006200026000200704700006348806940F0040023
:10063000614988610846806940F0100088615F4820
:1006400000686FF4706108405C4908600846006803
:1006500008605B4800685B490840594908600846E3
:10066000006808605448806940F40070524988610D
:100670000846406840F4404048600846C06840F47E
:100680000070C8600846C06820F40070C8604E481A
:10069000006820F470204C4908600846006840F467
:1006A00080700860081D006840F46020091D086023
:1006B0000846006820F4006008600846006840F4BE
:1006C0008070086040480C30006840F4E0703E499B
:1006D0000C310860081F006840F00700091F08601F
:1006E0000846006840F0380008600846006840F49A
:1006F000603008600846006840F460600860081DCB
:10070000006840F4E040091D08602F483030006860
:1007100040F002002C49303108600846006840F47F
:10072000A07008600846006840F4705008600846F1
:10073000006840F4B02008600846006840F45000AB
:1007400008600846006840F0006008601E482830D5
:10075000006840F4C0001C49283108601A48001D98
:10076000006840F001001849091D0860084600684B
:1007700040F00800086000BF1348001D006800F04A
:1007800008000028F8D11048001D006840F004005F
:100790000D49091D086000BF0B48001D006800F0EE
:1007A00004000028F8D10848001D006820F001006E
:1007B0000549091D0860704700100240000801400B
:1007C0000010014000FF0FFF0424014010B519483C
:1007D000006840F0010017490860322002F018FE5E
:1007E0001448006840F001001249086000F0E6F982
:1007F0001048006840F480000E49086000BF0E48B1
:10080000006800F002000028F9D00B48406840F072
:1008100007000949486007480838006820F01200BE
:100820000449083908600348006820F001000149C4
:10083000086010BD082401400000024010B51448B3
:10084000007807281AD2DFE800F004090A10130D17
:1008500016000021084602F035F910E00FE001F023
:100860009FFF0CE000F07AFA09E001F0D9FC06E005
:1008700001F0ECFC03E000F081FC00E000BF00BFF1
:1008800003480078052801D000F07AFA10BD000076
:1008900070000020014908707047000070000020BF
:1008A0003EB513480078401E114908701148097878
:1008B00010F8110000900F480D49097800EB410035
:1008C000407801900C480A490978445C23469DE829
:1008D000070003F083FF0849054A12788854084648
:1008E00003490978405C08B100203EBD0120FCE7C7
:1008F0002A000020BB0A0020BC0900200A281CD0C6
:1009000006DC01282AD0032807D0042844D134E08B
:1009100011282AD014283FD136E0002905DB002217
:100920001F4B1A801B1D198037E000221C4B1B1D1A
:100930001A804A421B1F1A802FE0002906DB002282
:10094000174B08331A801B1D198026E00022144B18
:100950000C331A804A421B1F1A801EE00022104BE3
:100960001B1D1A801B1F1A8017E04FF47A720C4B64
:100970001B1D1A801B1F1A800FE00022084B0C332E
:100980001A801B1F1A8008E04FF47A72044B0C3354
:100990001A801B1F1A8000E000BF00BF70470000D4
:1009A000342C01400EB540F2E730ADF802000820CB
:1009B000ADF800000020ADF80400ADF80600ADF879
:1009C0000800ADF80A00684601F04EFB0EBD0000BD
:1009D0005E48806940F004005C4988615C480068BA
:1009E0005C4908405A490860084600685A4908436B
:1009F000574908605548C06940F001005349C86133
:100A00000846C06940F00200C8615448008820F0E0
:100A1000070052490880C806008920F00700C9066F
:100A200008814E480838008820F010004B490839EA
:100A300008800805008820F01000090508800020C3
:100A4000464920310880C90608854FF6FF704349A2
:100A5000243108804FF0804188854048008840F06C
:100A600002003E490880C806008940F00200C9061D
:100A700008813A481030008840F0010037491031B1
:100A800008804FF08040008B40F001004FF0804123
:100A9000088332481030008840F480702F491031AC
:100AA00008804FF08040008B40F480704FF0804110
:100AB00008832A481030008840F030002749103160
:100AC00008804FF08040008B40F030004FF08041B4
:100AD000088322481030008840F440501F491031EC
:100AE00008804FF08040008B40F440504FF0804130
:100AF00008831A481830008840F00200174918315E
:100B000008804806008C20F002004906088413483B
:100B10001830008820F0200010491831088048065D
:100B2000008C20F02000490608840C480838008812
:100B300040F080000949083908800805008840F025
:100B400080000905088000200882704700100240DC
:100B50000008014000FFFF0044000044080400407A
:100B60001248406940F0010010494861104811499D
:100B70000861114848610846806840F0800088603C
:100B80000846806840F4805088600846806840F4D9
:100B9000807088600846806840F4806088600846FD
:100BA000806820F01000886070470000001002404C
:100BB0004C24014000000240983900200848806819
:100BC00020F00100064988600846C06840F0060031
:100BD000C8600846806840F00100886070470000E7
:100BE0000000024010B50D4800680D4908430B494C
:100BF0000860FFF7D7FEFFF7EBFE02F071F802F096
:100C00004BF8FFF711FDFFF7ABFF00F025FB00F0FD
:100C100099FB4FF4E13002F039F910BD0CED00E022
:100C20005000FA0510B507480088401C05490880A7
:100C3000084600880A2803DB0020088001F048FFEE
:100C400010BD00002600002030B5044604254FF4F6
:100C5000302000F06FF80546042D17D10C480069CC
:100C600040F002000A49086108464461006940F00A
:100C7000400008614FF4302000F05CF8054604485D
:100C8000006941F6FD71084001490861284630BD00
:100C90000020024004200B49C96801F0010109B19C
:100CA00001200EE00749C96801F0040109B10220E2
:100CB00007E00449C96801F0100109B1032000E010
:100CC00004207047002002400348006940F0800083
:100CD00001490861704700000020024070B50446D9
:100CE0000D460426F00200F025F80646042E11D128
:100CF0000948006940F00100074908612580F002B9
:100D000000F018F806460448006941F6FE710840F4
:100D100001490861304670BD002002400248034985
:100D2000486003484860704723016745002002403F
:100D3000AB89EFCD00B502460423FFF7ABFF0346B6
:100D400003E0FFF7A7FF0346521E012B01D1002A43
:100D5000F7D102B90523184600BD000010B50748B9
:100D60000088401C05490880084600880A2803DBE3
:100D70000020088000F010F810BD00008200002064
:100D8000002003490880034908604860704700005C
:100D900076000020780000202DE9F04F91B000206F
:100DA00002F0FAFCEA4909680844E94908600120B0
:100DB00002F0F2FCE64949680844E5494860E54824
:100DC0000D90E549B1F900104CF60E5201FB02F707
:100DD00007EBD771DE4A1268C2EB610004F09CFD9C
:100DE0000C90DD49B1F900104CF60E5201FB02F7F0
:100DF00007EBD771D64A5268C2EB610004F08CFD54
:100E00000B90DDE90C1004F0D3FD074604F068FDFB
:100E10000E900B990D9804F0CBFD074604F060FD91
:100E20000F900E98B0F5AF6F02DD4FF4AF6000E0A9
:100E30000E980E900F98B0F5AF6F02DD4FF4AF60D3
:100E400000E00F980F900E9810F5AF6F01DAC348CD
:100E500000E00E980E900F9810F5AF6F01DABF48C2
:100E600000E00F980F90BC48B0F900004CF60E510E
:100E700000FB01F707EBD771481004F04DFDB449B2
:100E80000590086804F048FD0490059904F066FC9C
:100E9000804604F0C9FBB24AB24BCDE9060103F02B
:100EA000C5FECDE9080103F0DBFD0546AA48B0F90F
:100EB00000004CF60E51484300EBD07109904810E9
:100EC00004F02AFDA2490490486804F025FD03902F
:100ED000049904F043FC059004F0A6FB0746A04AE1
:100EE000A04B03F0A3FECDE9060103F0B9FD0646D1
:100EF0009948B0F900004CF60E51484300EBD07110
:100F00000990481004F008FD014604900C9804F084
:100F100025FC059004F088FB0746914A924B03F0AC
:100F200085FECDE9060103F09BFD81468A48B0F9B4
:100F300000004CF60E51484300EBD0710990481068
:100F400004F0EAFC014604900B9804F007FC0590BD
:100F500004F06AFB0746824A834B03F067FECDE943
:100F6000060103F07DFD8246284604F05DFB002269
:100F70007E4BCDE9080104F045F902D200207B49FF
:100F800002E0284604F050FB074603F069FD0546E1
:100F9000304604F049FB0022744BCDE9080104F00F
:100FA00031F902D20020714902E0304604F03CFBE6
:100FB000074603F055FD0646484604F035FB00227F
:100FC0006A4BCDE9080104F01DF902D200206749FF
:100FD00002E0484604F028FB074603F041FD814645
:100FE000504604F021FB0022604BCDE9080104F0DB
:100FF00009F902D200205D4902E0504604F014FBDA
:10100000074603F02DFD82460E9804F085FC294624
:10101000099004F0CDFC8046494604F0C9FC07461F
:1010200004F05EFC0E900F9804F076FC31460990B7
:1010300004F0BEFC8046514604F0BAFC074604F0BA
:101040004FFC0F900E9800F28A200E900F9800F23D
:101050008A200F9002F0BCFC0446002002F09CFBAA
:101060008046012002F098FB4044009004F054FCBC
:101070004FF08041019004F071FB3D49029004F073
:1010800094FD07463A4904F069FB039004F0CCFA5A
:10109000334A344BCDE9040103F0B6FF304A324BFA
:1010A000CDE9060103F00EFDCDE9080103F0D8FCFF
:1010B0000A90DDE90E01471807EBD771481004F0DC
:1010C0002BFC09900A9904F073FC8046294904F02E
:1010D00045FB8346B4F57A7F02DD4FF47A7000E079
:1010E0002046044614F57A7F01DA234800E02046C2
:1010F0000446204604F010FC5946089004F058FCC1
:1011000080460E9804F008FC4146099004F0B8FAB5
:10111000074604F0E5FB0E90204604F0FDFB59461F
:10112000089004F045FC80460F9804F0F5FB41461A
:10113000099004F045FD074604F0D2FB0F900F9A8A
:1011400011B20E9A10B201F0BDFC11B0BDE8F08FE3
:1011500078000020A69BC43C7600002088FAFFFFA0
:101160009A9999999999C93F9999B93F0000F03F87
:101170000020004500007A4418FCFFFF10B5084825
:101180000088401C06490880084600880A2806DBBB
:10119000002008800348B0F9000001F0CBF910BD31
:1011A000AC0000207200002010B5044634B902F0F3
:1011B00051F900F005000649087008E002F04AF90C
:1011C00000F002000249097808430149087010BD87
:1011D0002800002010B5322002F00EF902F03AF992
:1011E0000349087000F024FB00F03CF910BD00003A
:1011F000280000201CB50A480068401C0849086007
:10120000084600680A2809D300200860684602F0F2
:1012100003FC044800990160019941601CBD000075
:10122000640000205C00002000F00101084A116009
:10123000C0F34001074AC2F8B411C0F38001044A68
:10124000083A1160C0F3C001024AC2F88811704721
:1012500094012142000022422648806940F00400A7
:10126000244988610846806940F01000886122485E
:10127000006820F47040204908600846006820F4A7
:10128000700008600846006840F440500860084656
:10129000006840F4401008601848006820F470604E
:1012A000164908600846406820F470004860084607
:1012B000406840F4401048600846006840F44070C0
:1012C00008600D480C30006820F008000A490C3115
:1012D00008600846006820F0200008600748C068E1
:1012E00020F004000549C8600846C06820F400509A
:1012F000C860704700100240000801400010014023
:1013000010B5044601F092FC0C490968401AA0424D
:1013100013D901F08BFC094908600948006800F402
:10132000805028B14FF4805005490831086004E02E
:101330004FF480500249091D086010BD08000020CC
:101340000C0C01401748806940F010001549886175
:101350000846806940F0080088611348406820F41E
:101360007040114948600846406840F400404860B9
:101370000846C06840F40060C8600C48006820F46B
:1013800070200A4908600846006840F44030086050
:1013900006480830006840F480500449083108606D
:1013A000704700000010024000100140040C014092
:1013B0002DE9F04105460E46C3F1040005FA00F49C
:1013C0000F2018413040044304F00F04D71702EBFC
:1013D000D7677F11BF0007F1E027D7F800711146EA
:1013E0004FEAE27C02EBDC6C4FEA6C1CA2EB4C187F
:1013F0004FF0010C0CFA08FC47EA0C0710464FEAC4
:10140000E27C02EBDC6C4FEA6C1C4FEA8C0C0CF1BA
:10141000E02CCCF800710448805C40EA04100249DA
:101420008854BDE8F081000000E400E010B500F051
:101430001BFB00F037FB02F0A9FB10BD10B501F05B
:101440003FFF02F0ABFB00F017FB00F02FFB10BDDD
:1014500010B501F02DFF02F0DBFB00F00EFB00F0F9
:1014600026FB10BD2DE9FE43684602F027FA9C4892
:1014700090F800806FEA0800C0F34004C8F38005CC
:10148000012608F001079749009801EB0010019927
:10149000405C40F01000934A009902EB0111019A60
:1014A0008854029838B15A2845D0B4287ED0B0F577
:1014B000877F3FD1C1E08B49009801EB0010019973
:1014C000405C04F001010843864A009902EB0111D7
:1014D000019A88548349009801EB00100199405CFF
:1014E000022101EA450108437E4A009902EB0111FD
:1014F000019A88547B49009801EB00100199405CE7
:10150000042101EA86010843764A009902EB0111A1
:10151000019A88547349009801EB00100199405CCE
:10152000082101EAC70108436E4A009902EB011144
:10153000019A8854C1E06B49009801EB00100199B1
:10154000405C07F001010843664A009902EB011173
:10155000019A88546349009801EB00100199405C9E
:10156000022101EA440108435E4A009902EB01119D
:10157000019A88545B49009801EB00100199405C86
:10158000042101EA85010843564A009902EB011142
:10159000019A88545349009801EB00100199405C6E
:1015A000082101EAC60108434E4A00E005E000991F
:1015B00002EB0111019A88547FE04A49009801EB3F
:1015C00000100199405C06F001010843454A00996A
:1015D00002EB0111019A88544249009801EB001076
:1015E0000199405C022101EA470108433D4A009904
:1015F00002EB0111019A88543A49009801EB00105E
:101600000199405C042101EA84010843354A0099AC
:1016100002EB0111019A88543249009801EB001045
:101620000199405C082101EAC50108432D4A00994F
:1016300002EB0111019A88543FE02A49009801EB1E
:1016400000100199405C05F001010843254A00990A
:1016500002EB0111019A88542249009801EB001015
:101660000199405C022101EA460108431D4A0099A4
:1016700002EB0111019A88541A49009801EB0010FD
:101680000199405C042101EA87010843154A009949
:1016900002EB0111019A88541249009801EB0010E5
:1016A0000199405C082101EAC40108430D4A0099F0
:1016B00002EB0111019A885400BF00BF094900984C
:1016C00001EB00100199405C38B1064A009902EB29
:1016D0000111019A885C02F009FFBDE8FE83000059
:1016E00028000020BC08002010B500F00BF80020F6
:1016F00002F0B8FA02F08AFE03F004F901F032FDBC
:1017000010BD000030B593B056E001F0E1FD0AA82D
:1017100002F0D4F80AA807C810AB07C3119AD1B2D7
:10172000109AD0B202F006FE05462B4610A807C854
:1017300003F054F80546284601F0E8FF002839DD9B
:10174000284610A90EC901F02EFE05461D48017855
:10175000284601F023FF04461298009021460AA86B
:10176000DDE9102302F0B2F80AA807C80DAB07C3E1
:1017700025EA040310A807C802F072FE204610A94B
:101780000EC902F0B3FB00BF01A802F097F801A850
:1017900007C807AB07C30D998842F5D104A802F02A
:1017A0008DF804A807C80AAB07C308460E998842FB
:1017B000EAD101E001F010FC02F07CFC0028A4D189
:1017C00013B030BD2E000020002009E00021134A94
:1017D0001154134A02F8101002EB40025170401CE1
:1017E0006428F3DB00200F49087000BF10E00021DF
:1017F00000EB40020C4B43F8221000EB400203EBDD
:101800008202516000EB400203EB82029160401CB7
:10181000FF28ECDB0020054908807047BC09002048
:10182000BB0A00202A000020BC0C00202C00002055
:1018300000200AE0002105E00022054B03EB001325
:101840005A54491C1029F7DB401C1028F2DB704762
:10185000BC0800202DE9F84F0024CFE06F4850F875
:101860002410083040F82410183850F82410103094
:1018700040F82410E0B201F08FFF694931F91410EB
:101880000D1A284604F048F86449103941F824003C
:101890000A4652F82410083252F8240003F0F0FEF1
:1018A0005E49083941F82400083951F824005D499F
:1018B00004F04AF801D2012000E00020824604F042
:1018C0002BF88046554850F824104FF0804004F023
:1018D0006FF800905148103850F82410009804F028
:1018E00064F983464D48083050F82410584603F0F8
:1018F000C7FE82464C488168504604F059F881463C
:10190000414604F055F806464449103951F8240080
:10191000444904F019F801D2012000E00020824679
:1019200003F0FAFF81463D4A083A52F824103E4A35
:10193000506804F03DF84946009004F039F88046BC
:10194000364A103A52F82410374A106804F030F83A
:101950008346414603F094FE0746314603F090FE6D
:10196000054603F0BDFF2D49103141F8240008461B
:1019700050F82400B0F5617F02DD4FF4617003E0A0
:101980002648103050F824002449103141F8240032
:10199000084650F8240010F5617F01DA234803E07F
:1019A0001E48103050F824001C49103141F8240022
:1019B0001F4830F8140038B1194830F8140018B92D
:1019C00001F034F91B490860154830F81400A0B93B
:1019D00001F02CF917490968401A40F6B8318842DD
:1019E0000BD90E48103050F824004000032190FB22
:1019F000F1F10A48103040F82410641C022CFFF664
:101A00002DAF064A103A928C11B2044A103A128C49
:101A100010B202F008FEBDE8F88F00008039002007
:101A2000480000200000C842E06200087CFCFFFF84
:101A300050000020540000200A4A92680244002A04
:101A400002DA00F5B47202E0064A9268024411B26A
:101A50004FF4B47291FBF2F302FB1311014A91604F
:101A6000704700000C00002010B500F083FAFFF76B
:101A7000C1FBFEF7E3FE10BD7047704710B50028AC
:101A800007DA0A07140E054A00F00F031B1FD4548F
:101A900003E00A07130E024A135410BD18ED00E0CC
:101AA00000E400E010B502F0E7FA10BD704710B591
:101AB000FFF790FBFFF788FE10BD00002DE9F04313
:101AC000A5B00024641C1CA801F0F8FE214613A850
:101AD00002F02CF813A807C816AB07C319902146CB
:101AE00013A802F023F813A807C816AB07C31A916E
:101AF000DDE91A01CDE90001199B1CA807C802F015
:101B000079FA0646DE48009030461CA90EC902F05C
:101B100093F9DDE91A01CDE90001199B1CA807C85A
:101B200001F00BFE074602F075FD4FF4C870D54971
:101B3000088000BF16A801F0C1FEDDE91A01CDE959
:101B4000000116A80FC801F0F8FD0128F2D14FF4EA
:101B50004870CC49088000BF02F052FC814603F077
:101B6000ECF90746C84AC94B03F012FA03D201F058
:101B7000B7FC0028F0D04FF4C870C24908806EE06E
:101B80001CA801F09BFE214613A801F0CFFF13A86B
:101B900007C816AB07C31C90214613A801F0C6FF67
:101BA00013A807C816AB07C31D91601CC1B213A8C8
:101BB00001F0BCFF13A807C816AB07C31990601C3F
:101BC000C1B213A801F0B2FF13A807C816AB07C330
:101BD0001A91DDE91A01CDE90001199B1CA807C87B
:101BE00002F008FA0646AA48009030461CA90EC921
:101BF00002F022F9DDE91A01CDE90001199B1CA8C8
:101C000007C801F09AFD074602F004FD4FF4C870C2
:101C10009C49088000BF16A801F050FEDDE91A01BA
:101C2000CDE9000116A80FC801F087FD0128F2D107
:101C30004FF42F709349088000BF02F0E1FB81460A
:101C400003F07BF90746904A904B03F0A1F903D2C9
:101C500001F046FC0028F0D0601CC4B200BF214651
:101C600007A801F063FF07A807C8064613AB07C320
:101C70000AA801F07BFF0AA807C816AB07C3864273
:101C80007FF47EAF21460DA801F050FF0DA807C8D4
:101C90000E4619AB07C310A801F068FF10A807C8CB
:101CA0001CAB07C38E42EBD100BF07A801F006FEB4
:101CB00007A807C8064613AB07C30AA801F056FFDA
:101CC0000AA807C816AB07C38642EED10DA801F0DB
:101CD000F5FD0DA807C80E4619AB07C310A801F003
:101CE00045FF10A807C81CAB07C38E42DDD10020FA
:101CF00001F0BEFF002063490880601EC4B259E0B5
:101D00001CA801F0DBFD214613A801F00FFF13A86A
:101D100007C816AB07C31990214613A801F006FFA8
:101D200013A807C816AB07C31A91DDE91A01CDE95C
:101D30000001199B1CA807C802F05CF90646504830
:101D4000009030461CA90EC902F076F8DDE91A01B0
:101D5000CDE90001199B1CA807C801F0EEFC07465D
:101D600002F058FC00BF01A801F0A8FD01A807C8B7
:101D700007460DAB07C3214604A801F0D7FE04A80F
:101D800007C810AB07C38742EDD107A801F096FD45
:101D900007A807C80F4613AB07C321460AA801F0DE
:101DA000C5FE0AA807C816AB07C38F42DBD1601E69
:101DB000C4B200BF07A801F081FD07A807C8064606
:101DC00013AB07C300210AA801F0B0FE0AA807C898
:101DD00016AB07C3864293D10DA801F06FFD0DA885
:101DE00007C80E4619AB07C3002110A801F09EFEDC
:101DF00010A807C81CAB07C38E4281D122A801F0EE
:101E00005DFD00201F902090DDE92001CDE900015B
:101E10001F9B22A807C802F0EDF80546184800905D
:101E2000284622A90EC902F007F8DDE92001CDE914
:101E300000011F9B22A807C801F07FFC064602F0A4
:101E4000E9FB00BF13A801F039FD13A807C819ABBF
:101E500007C30028F6D116A801F030FD16A807C860
:101E60001CAB07C30029EDD1002001F0FBFE0420CC
:101E700001F0F8FE002001F0F5FE25B0BDE8F0838A
:101E8000713C00083C080040AE47E17A04C3E440DE
:101E9000733D000870B59EB0002450E01BA801F00F
:101EA0000DFD214612A801F041FE12A807C815AB8E
:101EB00007C31890214612A801F038FE12A807C8DF
:101EC00015AB07C31991DDE91901CDE90001189B94
:101ED0001BA807C802F08EF8054625480090284642
:101EE0001BA90EC901F0A8FF012001F0C1FE00BF2F
:101EF000684601F0E3FC9DE8070006460CAB07C30B
:101F0000214603A801F012FE03A807C80FAB07C3C0
:101F10008642EDD106A801F0D1FC06A807C80E46FE
:101F200012AB07C3214609A801F000FE09A807C8A3
:101F300015AB07C38E42DBD1601CC4B200BF214683
:101F400012A801F0F3FD12A807C818AB07C3632855
:101F5000A4D1214615A801F0E9FD15A807C81BABBF
:101F600007C363299AD1002001F07CFE1EB070BD2A
:101F7000713C000810B508480068401C064908601C
:101F8000084600680A2805D30020086002F00EFC0D
:101F9000FFF760FC10BD0000580000202DE9F04163
:101FA00092B0054600260027B046012426A000F086
:101FB000F7FF284600F0F4FF23A000F0F1FF2DE02A
:101FC000601C285C3038295D303901EB810100EB61
:101FD000410087B2E01C285C3038A11C695C3039B4
:101FE00001EB810100EB41001FFA80F80F97CDF85B
:101FF0004080F0B20FA90EC902F034FB701C86B20B
:10200000601D84B210980090324610A102A80F9B68
:10201000FEF700F902A800F0C3FF00BF632F04D051
:10202000B8F1630F01D0FA2ECADBF0B202F014FB54
:1020300002F0AAFC04A000F0B3FF09A000F0B0FF7A
:1020400012B0BDE8F08100000D0A00005025326496
:102050002C583D2532642C593D2532642E0D0A0042
:102060004F4B200D0A0000006A49896941F00401C4
:10207000684A91611146896941F40061916166493C
:1020800009686FF30F01644A1160114609684BF645
:10209000BB321143604A11606049098821F0070191
:1020A0005E4A118001885D4A203211804188121DEC
:1020B00011808188594A2C321180C188121D1180EB
:1020C0000189121D11804189121D1180534908395F
:1020D000098821F01001514A083A118011460988F7
:1020E00041F0800111804D491031098841F06001B3
:1020F0004A4A103211801146098821F003011180EB
:1021000046491831098821F00201444A18321180E9
:1021100042491031098841F4C041404A10321180CF
:102120001146098821F4407111803C491831098811
:1021300021F02001394A18321180111F098841F01D
:102140006001121F11801146098821F003011180DE
:10215000111D098821F40071121D1180111F0988B9
:1021600041F4C041121F1180111F098821F44071F0
:10217000121F118029491831098821F40051274A7A
:102180001832118025491031098841F40061234A31
:10219000103211801146098841F008011180111D8B
:1021A000098841F40061121D11801146098841F02F
:1021B0000801118019490C31098841F00101174AC1
:1021C0000C32118015491831098841F01001134A69
:1021D000183211801146098841F001011180114621
:1021E000098841F4807111801146098841F48051B9
:1021F00011800A490839098841F00101074A083A63
:10220000118006493C31098841F40041034A3C32BF
:10221000118070470010024004080140082C014062
:1022200010B508480088401C064908800846008808
:102230000A2806DB002008800348B0F9000000F0FF
:102240001BF810BD8C0000207200002010B508485B
:102250000088401C06490880084600880A2806DBDA
:10226000002008800348B0F9000000F0B5F810BD68
:1022700098000020720000202DE9FC410546002056
:1022800000900190002415F1B40F0FD015F15A0FF2
:1022900007D05A2D02D0B42D0AD104E048F2E80448
:1022A00006E0484C04E04FF6E85401E0464C00BF1D
:1022B00000BF002001F070FA44490968084443490E
:1022C0000860012001F068FA40494968081A3F494E
:1022D0004860264604EBD6713C4A1268C2EB6100A6
:1022E00003F01AFB80463A4903F062FB074603F00D
:1022F000F7FA009004EBD671344A5268C2EB6100E1
:1023000003F00AFB8046324903F052FB074603F014
:10231000E7FA019040F28A210098884201DD0846E0
:1023200000E00098009040F28A210198884201DD87
:10233000084600E00198019026490098884201DA99
:10234000084600E00098009022490198884201DA8E
:10235000084600E00198019004EBD4761B4F3F68DB
:10236000C7EB660616F5C87F23DD04EBD476174F5E
:102370003F68C7EB6606B6F5C87F1ADA04EBD47679
:10238000124F7F68C7EB660616F5C87F11DD04EBB8
:10239000D4760E4F7F68C7EB6606B6F5C87F08DABD
:1023A0000020FEF777FA0020084908604860BDE881
:1023B000FC81019A524211B2009A10B200F082FBE5
:1023C00000BFF4E7187FFFFF1802FFFF8400002022
:1023D000CDCCCC3D76FDFFFF7FB5044600200290BA
:1023E00003900090019014F1B40F15D014F15A0F1E
:1023F00009D05A2C02D0B42C12D108E044F2740057
:10240000009001900CE045480090019008E047F6EC
:10241000F4600090019003E041480090019000BFFB
:1024200000BF002001F0B8F93E49096801EB400007
:102430003C490860012001F0AFF93A494968A1EB35
:10244000400038494860374A00991268881A03F0FA
:1024500063FA0646344903F0ABFA054603F040FA46
:102460000290304A01995268881A03F055FA0646DC
:102470002D4903F09DFA054603F032FA039040F22D
:102480008A210298884201DD084600E00298029005
:1024900040F28A210398884201DD084600E0039853
:1024A000039022490298884201DA084600E0029827
:1024B00002901E490398884201DA084600E003981A
:1024C0000390184900980968401A10F5C87F1CDD70
:1024D000144900980968401AB0F5C87F15DA114907
:1024E00001984968401A10F5C87F0EDD0D49019822
:1024F0004968401AB0F5C87F07DA0020094908602A
:10250000486001200A4908707FBD039A524211B207
:10251000029A10B200F0D6FA00BFF5E78CBFFFFFB9
:102520000C81FFFF90000020CDCCCC3D76FDFFFF5D
:102530007400002010B5044614F15A0F04D05A2C30
:1025400005D100F09FF803E000F014F800E000BFB0
:1025500000BF10BD06480178012906D10078012886
:1025600003D10020024A107070470120FCE70000F0
:10257000740000202DE9FC47002001F00DF93A49D4
:102580000968084438490860012001F005F9364916
:102590004968084434494860DFF8D0A0086803F06F
:1025A000BBF90546002103F000FB04462E494868AC
:1025B00003F0B2F905462E4903F0F7FA81462D499A
:1025C000204603F0C1F920D22B49204603F0BCFA83
:1025D0001BD24FF07E51484603F0C0F8054625490E
:1025E00003F0B2F911D24FF07E51484603F0B6F82D
:1025F0000546214903F0A8FA07D200201A490860CD
:102600004860FEF747F9BDE8FC872146504603F0D5
:10261000CFF9054603F064F900904946504603F0AF
:10262000C7F9054603F05CF9019000980090019805
:1026300002F083FC0746114A114B02F0E5FC054607
:1026400002F04CFC019040F6B8310198884201DD5F
:10265000084600E001980190019A11B2009A10B268
:1026600000F030FA00BFCEE79C000020CDCC4C3DFE
:1026700000A08C4600803B4500803BC57B14AE47E4
:10268000E17A06402DE9FC47002001F085F83A493F
:102690000968084438490860012001F07DF836498E
:1026A0004968084434494860DFF8D0A0086803F05E
:1026B00033F90546324903F078FA04462E49486852
:1026C00003F02AF90546002103F06FFA81464FF026
:1026D0007E51204603F042F805462A4903F034F9BA
:1026E0001BD24FF07E51204603F038F805462649AC
:1026F00003F02AFA11D22349484603F025F90CD2F7
:102700002149484603F020FA07D200201A49086000
:102710004860FEF7BFF8BDE8FC872146504603F04D
:1027200047F9054603F0DCF800904946504603F0AF
:102730003FF9054603F0D4F80190009802F0FDFB44
:102740000746124A124B02F05FFC054602F0C6FB38
:1027500000900198019040F6B8310098884201DD60
:10276000084600E000980090019A11B2009A10B259
:1027700000F0A8F900BFCEE7A4000020CDCC4C3D6E
:1027800000A08C4600803B4500803BC57B14AE47D3
:10279000E17A06400149088070470000720000207D
:1027A00010B507480088401C054908800846008885
:1027B0000A2803DB0020088000F09EF810BD00000E
:1027C0008000002030B503460C461546002207E085
:1027D000184600F008F824F812009B1C501C82B226
:1027E000AA42F5DB30BD0146088870472DE9F04F5D
:1027F00080468A461646B8F1006F02D333488045BA
:1028000001D3BDE8F08FFEF789FAA8F1006B4FEA1B
:10281000DB25CBF34909C9F58064A64200DC3446C8
:102820004DE04FF0006101EBC5204A142849FFF745
:10283000C9FF00270BE009EB0700254931F810001C
:102840004FF6FF71884200D003E0781C87B2A742A0
:10285000F1DB00BF012C1BDD4FF0006101EBC52057
:10286000FEF7F2F9002708E03AF8170007EB090134
:10287000174A22F81100781C87B2A742F4DB4FF008
:10288000006101EBC5204A14114900F023F804E06F
:1028900022465146404600F01DF8A64200D10FE006
:1028A0006D1C4FF000090AEB440AA044301B86B2AD
:1028B000B6F5806F02DD4FF4806400E03446B0E787
:1028C00000BFFEF701FA00BF9BE700000000080808
:1028D000A4390020F0B505460E461746002407E04F
:1028E00036F814102846FEF7F9F9AD1C601C84B2C6
:1028F000BC42F5DBF0BD00002DE9FF5F01F068F898
:1029000082464FF0000B2D4800682C494968084466
:1029100000EBD0710190481002F0FEFF009002F031
:1029200083FE8046264A274B02F06EFB06460022B5
:10293000254B02F07BF9044602F092F88346BAF583
:102940007A7F02DD4FF47A7000E0504682461AF535
:102950007A7F01DA1D4800E050468246504602F078
:10296000DBFF0746594603F023F80546134908687C
:1029700002F0D2FF0646294602F082FE044602F02B
:10298000AFFF0290504602F0C7FF0746594603F0DA
:102990000FF805460949486802F0BEFF0646294679
:1029A00003F00EF9044602F09BFF0390039A11B264
:1029B000029A10B200F086F8BDE8FF9F6800002080
:1029C0009A9999999999C93F00408F4018FCFFFF47
:1029D000014A1060516070476800002010B500F097
:1029E00001F810BD0CB5002001900090334800683C
:1029F00040F480303149086000BF3048006800F47E
:102A0000003000900198401C0190009818B901987E
:102A1000B0F5A06FF1D12948006800F4003010B182
:102A20000120009001E0002000900098012843D18F
:102A30002348006840F010002149086008460068FB
:102A400020F0030008600846006840F002000860BB
:102A50001A48406819494860084640684860084676
:102A6000406840F4806048600846406820F47C106C
:102A700048600846406840F4E8104860084600682E
:102A800040F08070086000BF0C48006800F00070E3
:102A90000028F9D00948406820F003000749486041
:102AA0000846406840F00200486000BF03484068A4
:102AB00000F00C000828F9D10CBD00000010024005
:102AC00000200240014A10805180704748000020D9
:102AD00010B500F0FFFC022803D000F0FBFC052835
:102AE0007DD1002000F058FE0446012000F054FE85
:102AF0002044424909680844404908600846006883
:102B000045F6464188420EDB3C48006846F2876144
:102B1000884208DC3A48007828B90020FEF744FBD8
:102B2000012037490870354800684CF60E5188423C
:102B300026DB32480068401A30490860314909896B
:102B400008B201F063FF2F490968012202FB00105F
:102B50002C490860098908B201F06DFF29494968CC
:102B6000012202FB00102749486001202649087015
:102B7000FEF71AFBFEF776FC00202149087039E0C9
:102B800000F0AEFC60B321480168214802F010FF5C
:102B9000044602F0A5FE1949096888422ADA002095
:102BA000164908601749098908B201F02FFF154935
:102BB0000968012202FB001012490860098908B265
:102BC00001F039FF0F494968012202FB00100D494D
:102BD000486001200C490870FEF7E6FA01E006E0C3
:102BE00008E0FEF73FFC00200549087002E00020E5
:102BF0000249086001F01AFA10BD00001C00002014
:102C0000240000200C0000201800002020000020DC
:102C1000000E4D4710B5FEF709FC03480068401C44
:102C20000149086010BD0000B400002001480068A0
:102C300070470000B400002010B51348006840F051
:102C400001001149086008464068104908400E49D3
:102C50004860084600680E4908400B49086008466D
:102C6000006820F4802008600846406820F4FE00D8
:102C700048604FF41F008860FFF7B0FE4FF000601F
:102C80000449086010BD0000001002400000FFF879
:102C9000FFFFF6FE08ED00E010B5104CB4F1807FA8
:102CA00001D3012011E024F07F40401E4FF0E021CD
:102CB00048610F214FF0FF30FEF7E0FE00204FF09B
:102CC000E021886107200861002008B100BFFEE70D
:102CD0000421481FFEF7D2FE10BD0000401901007C
:102CE0003B48C06940F004003949C8610846806922
:102CF00040F0080088613748006820F00F0035492F
:102D000008600846006840F00B0008603248008800
:102D100020F007003049088000202F49203108802A
:102D200040F60F60091D088000202B4934310880CF
:102D300029480838008820F0100027490839088001
:102D400025481430008840F0600023491431088081
:102D50000846008820F003000880081D008820F441
:102D60000070091D08801C480838008840F0800069
:102D700019490839088018481430008840F00800C4
:102D800015491431088014480C30008840F00100C7
:102D900011490C31088010481830008840F48070C8
:102DA0000D49183108800C480838008840F00100AF
:102DB0000949083908800948008840F0010007499E
:102DC00008800805008840F0010009050880704768
:102DD00000100240040C01400808004000040040BC
:102DE00010B50748008800F0200040B10448001DDD
:102DF0000088C4B202492046024A1268904710BDBA
:102E000000480040B000002010B5044694F80004CB
:102E100001280AD12078502803D12046FFF7BEF8B8
:102E200000BF00BF002084F8000410BD0149086005
:102E300070470000B000002030B50B460022124958
:102E400091F80014F1B93C2804D100210E4CA4F8EB
:102E5000021417E03E2804D101210B4C84F8001421
:102E600010E00949B1F80214074C6054B4F8024468
:102E7000611CCC1701EB9454A412A1EB8424024DE5
:102E8000A5F8024430BD0000B80400202DE9F05F31
:102E900004464FF00009CA46CB463C48C06940F49E
:102EA00080203A49C8613A48006820F47F40384998
:102EB00008600846006840F496400860334800699E
:102EC00040F48020314908610846006920F48020E0
:102ED00008613048008820F480502E490880081D81
:102EE000008820F44050091D08802B48008842F2D9
:102EF0000C01084328490880200102F035F80746F4
:102F00003A460B460020254901F090FE054601F0A7
:102F1000A7FD8146484602F0E3FC8246504602F097
:102F2000FBFC0746494602F040FE06464FF083414F
:102F300002F03EFD054602F0D3FC83460BEB0A1B74
:102F40001448001F008840EA0B001249091F08803E
:102F5000081D008840F00800091D08800846008808
:102F600040F0040008800846008840F400500880C3
:102F70000846008840F02000088002232722002114
:102F80000846FEF715FABDE8F09F00000010024069
:102F9000040C01400C4800400C380140882A814153
:102FA0000BE010F8011B074A118000BF0549091FFB
:102FB000098801F040010029F8D001780029F0D1FA
:102FC000704700000448004030380A2801D2012030
:102FD0007047002070470000F0B58FB000BFFDF7CC
:102FE0005FFC0028FBD159480088401E57490880E3
:102FF0004BE009A800F062FC5448008800EB400058
:10300000534901EB8001D1E90101CDE900014F48AD
:10301000008800EB40004E4901EB80073B6809A89F
:1030200007C800F0CBFF064609A800F047FC304671
:1030300009A90EC900F05AFF00BF684600F03EFC27
:103040009DE8070006AB07C34049098801EB410131
:103050003F4A52F821108842EFD103A800F02EFC1D
:1030600003A807C809AB07C308463849098801EB1C
:103070004101374A02EB810149688842DDD133487A
:103080000088401E3149088000BF684600F016FCE9
:103090009DE8070006AB07C301462E482E4A12786A
:1030A00010F812008142A4D103A800F007FC03A885
:1030B00007C809AB07C32748274A127800EB42002C
:1030C0004078814295D121480088401C1F490880E2
:1030D000224821490978455C21480178284600F0BA
:1030E0005DFA044609A800F0E9FB0B980090214620
:1030F000DDE909230CA800F0E9FB09A800F0DEFBDC
:1031000025EA040309A807C801F0AAF909A800F0F4
:10311000D5FB204609A90EC900F0E8FE00BF6846AD
:1031200000F0CCFB9DE8070006AB07C30C99884272
:10313000F5D103A800F0C2FB03A807C809AB07C379
:1031400008460D998842EAD10FB0F0BD2C0000204E
:10315000BC0C0020BB0A00202A000020BC09002073
:103160002E00002030B58DB001F090F8374800886F
:10317000401E364908804BE00AA800F09FFB334808
:10318000008800EB4000324901EB8001D1E90101E8
:10319000CDE900012D48008800EB40002C4901EBEF
:1031A00080052B680AA807C800F008FF04460AA893
:1031B00000F084FB20460AA90EC900F097FE00BF6C
:1031C00001A800F07BFB01A807C807AB07C31F4994
:1031D000098801EB41011E4A52F821108842EFD1C3
:1031E00004A800F06BFB04A807C80AAB07C3084695
:1031F0001649098801EB4101154A02EB8101496832
:103200008842DDD111480088401E1049088000BF67
:1032100001A800F053FB01A807C807AB07C30028AB
:10322000AAD104A800F04AFB04A807C80AAB07C348
:103230000029A1D1002000F015FD042000F012FDAE
:10324000002000F00FFD0DB030BD00002C0000206C
:10325000BC0C002010B5642000F0CEF81148806846
:1032600000F40060E0B900200F4908604FF4FA70E4
:1032700000F0C2F800BF0D48006800F400600028AC
:10328000F9D000F07BFB10B900F066FC10B100F043
:10329000A5F801E001F098F94FF47A7000F0ACF86D
:1032A00010BD00000010014004000020080C014087
:1032B00010B50248FFF7BAFD10BD0000392E000816
:1032C00010B50248FFF7A0FD10BD0000B8040020B3
:1032D00070B5002464E000255FE0E9B2E0B201F0DF
:1032E00029F8002858D1E9B2621CD0B201F022F8C6
:1032F00008B90F2C50D1E9B2621ED0B201F01AF811
:1033000008B9002C48D16A1CD1B2E0B201F012F821
:1033100008B90F2D40D16A1ED1B2E0B201F00AF80F
:1033200008B9002D38D1002646F010060F2C07D022
:10333000E9B2621CD0B200F0FDFFC0F3800000E0F3
:10334000002006430F2D08D06A1CD1B2E0B200F075
:10335000F1FF00F00800801000E0002006433CB1BF
:10336000E9B2621ED0B200F0E5FFC007400F00E0F6
:103370000020064345B16A1ED1B2E0B200F0DAFF88
:1033800000F00200800000E000200643E9B2E0B255
:10339000324601F083FA00BF6D1C102D9DDB641CCA
:1033A000102C98DB70BD1FB50446039838B15A281D
:1033B00009D0B4280AD0B0F5877F0DD109E024F0F8
:1033C000040004B010BD24F00800FAE724F0010066
:1033D000F7E724F00200F4E700BFF2E710B5FF20A2
:1033E000034908704FF480620248FFF7FFF910BDEF
:1033F000B80000200000010870B50446FFF716FC75
:10340000054600BFFFF712FC401BA042FAD370BD77
:10341000002106E0052100BF0A1EA1F1010399B2B7
:10342000FAD1021EA0F10100F4D170470146012932
:1034300001D100207047022901D15A20FAE704295E
:1034400001D1B420F6E7082902D14FF48770F1E7E3
:103450000020EFE7F0B540F21A4440F2AA554FF4CD
:10346000FA66194F3F88A7F2DC573AB2164FFF8829
:10347000A7F52F673BB20020144FBA4201DA40F0A3
:103480000400134FBB4201DA40F001000E4F7F8869
:10349000DFF834C0BCF804C0674439B20A4F7F88F3
:1034A00040F21A4C674502DDB1F5FA6F08DC064FB1
:1034B000BF8840F2AA5C674504DDB1F5FA6F01DD13
:1034C00040F00200F0BD00005C000020B4FBFFFFF4
:1034D000CCF7FFFF01480078704700007000002023
:1034E0000D48408801B20C48808802B240F6B830DE
:1034F000814204DD881841F27073984207DCB2F50E
:10350000486F06DD881841F27073984201DD012092
:1035100070470020FCE700005C0000200EB51E494B
:1035200091F8011C01EB41011B4A02EB8103D3E935
:1035300000219B68CDE9011300924FF6FF71164AF6
:1035400092F8012C02EB4202134B03EB82029160D2
:10355000FF211A4692F8012C02EB420243F8221096
:103560001A4692F8012C02EB420203EB82025160F0
:10357000194691F8011CFF2901D1002103E00649F9
:1035800091F8011C491C044A82F8011C9DE80E00B8
:1035900080E80E000EBD0000B01C00202DE9F04FA9
:1035A0008FB004468946B9F1000F06D0B9F1010F7A
:1035B0001AD0B9F1020F16D12BE004F0010018B1B6
:1035C00001200FB0BDE8F08F04F0020008B1022026
:1035D000F7E704F0040008B10420F2E704F0080063
:1035E00008B10820EDE789E004F0080008B10820E0
:1035F000E7E704F0040008B10420E2E704F001006A
:1036000008B10120DDE704F0020008B10220D8E78C
:1036100074E000200E903B480D9000256AE00120E8
:10362000A8402040002864D00AA800F047F91DB93E
:103630000A98401C0A9010E0012D03D10B98401C01
:103640000B900AE0022D03D10A98401E0A9004E074
:10365000032D02D10B98401E0B900B9801F06DFCCE
:1036600007460022284B01F003FE82468B460B984A
:1036700001F063FC07460022234B01F0F9FD52469E
:103680005B46CDE9000101F0BFFCCDE904010A98D9
:1036900001F053FC074600221B4B01F0E9FD824676
:1036A0008B460A9801F049FC07460022164B01F0B0
:1036B000DFFD52465B46CDE9000101F0A5FCCDE9F6
:1036C0000201DDE9042301F0FDF9CDE9060100F076
:1036D000E9FFCDE9080101F0C3F9064630460D992E
:1036E00002F032F904D20D960120A840C0B20E902B
:1036F00000BF6D1C042D92DB0E9862E700BF00BF77
:103700005FE7000000007A4400001E4001460020F0
:1037100001F001020AB1421CD0B201F002020AB16A
:10372000421CD0B201F004020AB1421CD0B201F036
:1037300008020AB1421CD0B270470FB40020039AAD
:103740000099914211D1049A0199914204DD049AA1
:103750000199891AC8B21DE0049A0199914219DAB7
:10376000019A0499891AC8B214E0049A0199914205
:1037700010D1039A0099914204DD039A0099891AA5
:10378000C8B207E0039A0099914203DA009A0399BC
:10379000891AC8B204B07047014619B90348B0F994
:1037A000000070470148B0F90200FAE74C00002021
:1037B00000200F494988B1F52F6F01DD40F001006D
:1037C0000B490988B1F52F6F01DD40F0020008496F
:1037D000C98840F67462914201DD40F0040004495A
:1037E0008988B1F52F6F01DD40F0080070470000B7
:1037F0005C00002070B5002600243EE0002539E082
:10380000E9B2E0B200F096FD0646002E31D006F097
:10381000010048B10F2C07D0E9B2621CD0B200F011
:1038200089FD08B9002070BD06F0020048B10F2DD7
:1038300007D06A1CD1B2E0B200F07CFD08B90020CC
:10384000F1E706F0040040B13CB1E9B2621ED0B22B
:1038500000F070FD08B90020E5E706F0080040B16F
:103860003DB16A1ED1B2E0B200F064FD08B900209B
:10387000D9E76D1C102DC3DB641C102CBEDB0120AE
:10388000D1E700000C48B0F900000A2812DA0A4813
:10389000B0F9000010F10A0F0CDD0748B0F9020082
:1038A0000A2807DA0448B0F9020010F10A0F01DD16
:1038B000002070470120FCE74C000020024B0ECB9B
:1038C00080E80E00704700000C0000200FB410B517
:1038D00001F0010212B1049A521C049201F002029A
:1038E00012B1059A521C059201F0040212B1049A19
:1038F000521E049201F0080212B1059A521E05925E
:1039000004AA1CCA80E81C0010BC5DF814FB00006F
:1039100010B590B03022154904A8FCF78FFD01A81E
:10392000FFF7CCFF00241CE004EB440104AA52F88A
:1039300021100198884213D104EB440102EB81016C
:103940000298496888420BD104EB440004A901EBBA
:10395000800393E8070000F097FE012010B010BD2F
:10396000641C042CE0DB0020F8E70000B0620008D3
:10397000014890F8FE017047B01800200348007815
:10398000552801D1012070470020FCE7B800002035
:103990003FB50546079C012C02D10198401C0190BF
:1039A000022C02D10298401C0290042C02D10198F2
:1039B000401E0190082C02D10298401E0290204621
:1039C000FFF734FD039001A807C885E807003FBD55
:1039D0000E4B1B88A3F2DC5319B20C4BDB88A3F50A
:1039E0002F631AB200208B1A18B2094B994201DAE0
:1039F000534218B2074B9A4200DA0846044B9942E8
:103A000003DA044B9A4200DA002070475C00002081
:103A1000B4FBFFFFCCF7FFFF1CB50446FCF7D6FE56
:103A200041488088ADF800003F48C088ADF80600E6
:103A30003D480088ADF802003B484088ADF80400DE
:103A40000420FDF7F1FB0120FFF7E2FCFCF7BEFECE
:103A500035488088BDF80010401A80B2ADF80000EB
:103A6000BDF80000B0F5805F02DABDF8000000E0AC
:103A70000020ADF800000820FDF7D6FB0120FFF77D
:103A8000C7FCFCF7A3FE2848C088BDF80610401A02
:103A900080B2ADF80600BDF80600B0F5805F02DA2E
:103AA000BDF8060000E00020ADF806000120FDF79B
:103AB000BBFB0120FFF7ACFCFCF788FE1A4800882E
:103AC000BDF80210401A80B2ADF80200BDF8020045
:103AD000B0F5805F02DABDF8020000E00020ADF82A
:103AE00002000220FDF7A0FB0120FFF791FCFCF78C
:103AF0006DFE0D484088BDF80410401A80B2ADF844
:103B00000400BDF80400B0F5805F02DABDF80400DF
:103B100000E00020ADF804000020FDF785FB0098D0
:103B20002060019860601CBD9839002010B5084ADB
:103B300012F81120074B1A60054A02EB4102527835
:103B40005A6000229A601C461CCC80E81C0010BD04
:103B5000B01800206439002003480078AA2801D159
:103B6000012070470020FCE7B8000020024B0ECB7C
:103B700080E80E007047000030000020FDF732F8AA
:103B8000FDF766FC01E0FDF759FCFCE710B50248C3
:103B90000068FDF7B5FB10BD0400002010B5194802
:103BA000007830B101280BD0022826D0032827D175
:103BB0001DE04FF4FA701449086000F099FD1FE011
:103BC0004FF47A7010490860FDF78EFD4FF4FA70DB
:103BD0000D49086000F01AFC00F094FE0B4800F05C
:103BE00035FDFDF76BFF03200649087008E06420EF
:103BF0000549086000F0F0FC02E000F0C1FD00BFE4
:103C000000BF10BD0000002004000020CDCC4C3EC1
:103C100010B500F077FBFFF71DFBFFF7AFFE38B1E3
:103C200000F044FE0A4800F011FD03200949087025
:103C3000FFF792FF38B100F039FE054800F006FDAD
:103C400002200449087004A0FFF7AAF910BD000083
:103C5000CDCC4C3E000000205379735F4F4B200DBC
:103C60000A00000010B50446204600F001F810BD1F
:103C700010B50446062C7AD2DFE804F0031019319F
:103C8000496100210846FEF7A3FE0020FCF702FE72
:103C900000BFFFF7F7FD0028FBD168E04FF42F715C
:103CA0000846FEF795FE0220FCF7F4FD5FE00020D9
:103CB000FCF7F0FD00BFFFF7E5FD0028FBD16FF03A
:103CC0005900FEF767FD0420FCF7E4FD00BFFEF796
:103CD00041FC0028FBD15A20FDF7AEFE47E0002052
:103CE000FCF7D8FD00BFFFF7CDFD0028FBD15A201F
:103CF000FEF750FD0420FCF7CDFD00BFFEF72AFCC7
:103D00000028FBD16FF05900FDF796FE2FE0002050
:103D1000FCF7C0FD00BFFFF7B5FD0028FBD16FF039
:103D2000B300FEF737FD0420FCF7B4FD00BFFEF73B
:103D300011FC0028FBD1B420FDF77EFE17E0002027
:103D4000FCF7A8FD00BFFFF79DFD0028FBD1B420C4
:103D5000FEF720FD0420FCF79DFD00BFFEF7FAFBF7
:103D60000028FBD16FF0B300FDF766FE00BF00BF77
:103D700010BD10B50446062C5CD2DFE804F0031039
:103D80003211535700210846FEF722FE0020FCF7AF
:103D900081FD00BFFFF776FD0028FBD14AE049E036
:103DA0005A20FEF7F7FC0620FCF774FD00BFFFF772
:103DB00091FB0628FBD0012000F062F942F2F56089
:103DC00000F06AFC6FF05900FDF736FE42F2F56034
:103DD00000F036FC0F2000F017FC0520FCF75AFD20
:103DE00028E06FF05900FEF7D5FC0620FCF752FDE5
:103DF00000BFFFF76FFB0628FBD0012000F040F961
:103E000042F2F56000F048FC5A20FDF715FE42F240
:103E1000F56000F015FC0F2000F0F6FB0520FCF724
:103E200039FD07E00420FFF723FF03E00420FFF73C
:103E30001FFF00BF00BF10BD7FB50546089C012DC8
:103E400006D0022D18D0042D29D0082D4CD139E0F0
:103E500003985A2805D0B42806D0B0F5877F09D139
:103E600005E00320A04705E00420A04702E002206F
:103E7000A04700BF00BF37E0039828B1B42806D0A0
:103E8000B0F5877F09D105E00220A04705E00320B7
:103E9000A04702E00420A04700BF00BF24E0039831
:103EA00028B15A2806D0B0F5877F09D105E0042053
:103EB000A04705E00220A04702E00320A04700BF82
:103EC00000BF11E0039820B15A2805D0B42809D1C9
:103ED00005E00320A04705E00420A04702E00220FF
:103EE000A04700BF00BF00BF00BF7FBD1FB5044695
:103EF000012C06D0022C1BD0042C2FD0082C58D11A
:103F000042E003985A2805D0B42807D0B0F5877F3F
:103F10000CD107E00320FFF7A5FE07E00420FFF720
:103F2000A1FE03E00220FFF79DFE00BF00BF40E0BE
:103F3000039828B1B42807D0B0F5877F0CD107E0EB
:103F40000220FFF78FFE07E00320FFF78BFE03E060
:103F50000420FFF787FE00BF00BF2AE0039828B1C6
:103F60005A2807D0B0F5877F0CD107E00420FFF76F
:103F700079FE07E00220FFF775FE03E00320FFF75C
:103F800071FE00BF00BF14E0039820B15A2806D08C
:103F9000B4280CD107E00320FFF764FE07E00420FB
:103FA000FFF760FE03E00220FFF75CFE00BF00BFEA
:103FB00000BF00BF0120FFF755FE1FBD0FB40399DE
:103FC0000098884202DD042004B0704704990198EB
:103FD000884201DD0820F7E703990098884201DA5A
:103FE0000120F1E704990198884201DA0220EBE709
:103FF0000020E9E70FB403990098884202DD04200D
:1040000004B0704704990198884201DD0820F7E761
:1040100003990098884201DA0120F1E70499019898
:10402000884201DA0220EBE70020E9E70F48006848
:104030000F280BDC0D480068002807DB0B484068A0
:104040000F2803DC0948406800280EDA00BF084842
:10405000006800F4E06007490843001D0449086057
:10406000BFF34F8F00BF00BFFEE770470C0000207A
:104070000CED00E00000FA0510B5FCF7D3FD10BD13
:1040800000B502460A49098908B200F0BFFC084998
:10409000096802FB001006490860098908B200F0AF
:1040A000CAFC0349496802FB00100149486000BD91
:1040B0000C00002010B5FFF72BFCFFF729FC00B126
:1040C00002E0FFF797FB08B1002010BD0120FCE7DC
:1040D0002DE9FF410024002501A8FFF747FD4748CF
:1040E00001A90EC90EC04FF4B4704449886055E070
:1040F0004FF0FF0800262FE00120B040C7B204EBCC
:1041000044003E4901EB800393E8070000F01AF9F0
:10411000384000B304EB4400384901EB800C0097B1
:104120009CE80E0001A8FFF733FC01A807C800F0C7
:10413000F5F840450EDA01A807C800F0EFF800F0E6
:10414000FF08601C00EB40002C4901EB800001A936
:104150000EC90EC000BF761C042ECDDB601CC4B29D
:10416000601E00EB4000254901EB8000806804EBF5
:104170004401224A02EB8101896888420DD005EB97
:1041800045001F4901EB8001601E00EB400002EB7F
:1041900080030DCB0DC1681CC5B200BF04EB440009
:1041A000164951F820000028A2D104EB440001EB8D
:1041B0008000406800289BD105EB4501104A42F879
:1041C000210005EB450102EB81014860681CC5B286
:1041D00000260CE0691E891B01EB4101084A02EB35
:1041E0008107F0B297E80E0000F03CFA761CAE4270
:1041F000F0DB00BF00BFBDE8FF810000B428002055
:10420000B434002070B58AB031E000242DE00120E4
:10421000A040C5B207A807C800F094F8284018B31A
:1042200007A807C800F07AF8401CC6B22846FFF776
:10423000FDF80999884201D0701CC6B2009507A903
:104240000EC904A8FFF7A4FB04A807C800F066F88D
:10425000B04208DD334604A807C800F013FB04A8E9
:1042600007C800F0DFF800BF641C042CCFDB01A8F6
:10427000FFF754F901A807C807AB07C304AB07C38E
:104280004FF6FF718A42C0D10AB070BD704700007E
:1042900000200CE0002107E04FF6FF72174B03EB04
:1042A000401323F81120491C1029F5DB401C10286D
:1042B000F0DB002010E0002100EB4002104B43F83F
:1042C000221000EB400203EB8202516000EB40023F
:1042D00003EB82029160401CFF28ECDD00200849BE
:1042E000086048605A208860012081F8000C002096
:1042F00081F8010C0149088070470000B01A0020C5
:10430000B01C002010B54FF4806202490248FEF74D
:1043100059FA10BDB80000200000010807B5044993
:10432000009801EB4010019930F811000EBD00001B
:10433000B01A00200246024800EB0210405C7047B1
:10434000BC08002037B5019AD1B2009AD0B2FFF76D
:10435000F1FF00F00F0400980F2802D124F00100B3
:104360000DE0019AD1B2009A521CD0B2FFF7E2FFE1
:1043700000F0040008B1204601E024F001000446EA
:10438000009810B924F004000DE0019AD1B2009A0F
:10439000521ED0B2FFF7CEFF00F0010008B1204658
:1043A00001E024F00400044601980F2802D124F013
:1043B00002000DE0019A521CD1B2009AD0B2FFF770
:1043C000B9FF00F0080008B1204601E024F0020027
:1043D0000446019810B924F008000DE0019A521E1D
:1043E000D1B2009AD0B2FFF7A5FF00F0020008B1E9
:1043F000204601E024F00800044620463EBD0000AF
:1044000001480068704700001C00002010B5FFF74D
:104410003FFFFFF7F7FE00F075FAFFF759FE0120A6
:1044200010BD000007B50D4890F8000C00EB4000EF
:104430000A4901EB80009DE80E000EC0074890F885
:10444000000CFF2801D1002003E0044890F8000C84
:10445000401C024981F8000C0EBD0000B01C002079
:104460000FB51D49098801EB41011C4A009842F82B
:1044700021001949098801EB410102EB81010198F2
:1044800048601549098801EB410102EB810102985E
:10449000886011480088401C0F4908801846FFF7C3
:1044A00035F9002816DD0E480E4909784354009866
:1044B000C1B20D480B4A127800F812100A49094A95
:1044C000127801EB42010198487006480078401CC0
:1044D000044908700FBD00002C000020BC0C002017
:1044E000BC0900202A000020BB0A002010B588B0BB
:1044F000044605A8FFF7E2F93C208DF800000A21E8
:10450000059890FBF1F090FBF1F201FB12003030C6
:10451000C0B28DF80100059890FBF1F201FB12008A
:104520003030C0B28DF802002C208DF803000698C0
:1045300090FBF1F090FBF1F201FB12003030C0B2C1
:104540008DF80400069890FBF1F201FB1200303068
:10455000C0B28DF805002C208DF806006421079864
:1045600090FBF1F00A2190FBF1F201FB12003030D8
:10457000C0B28DF80700079890FBF1F090FBF1F2C4
:1045800001FB12003030C0B28DF80800079890FB94
:10459000F1F201FB12003030C0B28DF809002C207E
:1045A0008DF80A008DF80B403E208DF80C0000209D
:1045B0008DF80D008DF80E006846FEF7F1FC684698
:1045C000FEF7EEFC08B010BD10B50248FEF7E8FC9F
:1045D00010BD0000AA5C000810B50948806800F40E
:1045E000006060B900BF0748006800F40060002860
:1045F000F9D04FF4FA60FEF7FFFEFDF75FFA10BD49
:1046000000100140080C014001B2014A11807047BE
:104610007600002010B504462046FFF7F5FF052080
:10462000FCF738F910BD70B504460D4621460A2046
:10463000FCF764F929460320FCF760F970BD00001F
:1046400001490860704700001C0000200149086013
:104650007047000020000020014981F8FE017047EA
:10466000B01800200FB5044A019902F8101002EBAF
:104670004002029951700FBDB01800200149088016
:10468000704700002E00002007B502489DE80E008C
:104690000EC00EBD30000020014908604860704720
:1046A000780000202DE9F04106460F4600F0ECFDB1
:1046B000041E0D4618BF0120284320F00040C0F121
:1046C0007F6000F1E040C00F0ED0301C18BF012009
:1046D000384320F00040C0F17F6000F1E040C00F9F
:1046E00004BF0120FBF7E4FE20462946BDE8F08127
:1046F00010B51F48806800F40060002837D100BF63
:104700001C48006800F400600028F9D001201A4914
:10471000087000201949086000BFFFF749F8002819
:10472000FBD0FFF745F8012806D0022808D004285E
:104730000AD0082810D10BE00020FFF79FFF0CE003
:104740000120FFF79BFF08E00220FFF797FF04E03E
:104750000220FFF793FF00E000BF00BF642007497D
:1047600008604FF4FA60FEF747FEFCF733FD10BD1A
:1047700000100140080C014000000020040000204F
:1047800010B5002008490860FFF712F850B1642006
:10479000054908604FF4FA60FEF72EFEFDF77AFB3C
:1047A00000BFFEE710BD0000040000204FF0804075
:1047B000808C00B20749088000204FF08041888437
:1047C0000548008800B2034948800020024908805B
:1047D000704700004C000020240400401FB51C4618
:1047E000019A91B2009A521C90B200F025F808B1DB
:1047F00024F00104019A521C91B2009A90B200F088
:104800001BF808B124F00204019A91B2009A521EDA
:1048100090B200F011F808B124F00404019A521E7D
:1048200091B2009A90B200F007F808B124F00804A1
:10483000204604B010BD000070B505460E460024A9
:1048400015E004EB44000D4951F82000A84206D1C0
:1048500004EB440001EB80004068B04204D0F1B2A8
:10486000E8B2FFF767FD08B1012070BD641C044881
:1048700000888442E5DB0020F7E70000BC0C002044
:104880002C0000200FB50449009801EB401001995D
:1048900020F811300FBD0000B01A0020024B03EBCE
:1048A00000135A5470470000BC08002010B586B0B1
:1048B00013494878FFF7D0FE1148807803901048DC
:1048C000C078049003A807C8FFF7DEFE002412E0BA
:1048D000002000EB4400001D0949085C0090012005
:1048E00000EB4400001D085C0190E0B29DE80E0062
:1048F000FFF7B8FE641CFF2CEADD06B010BD000017
:10490000B800002010B586B055201D490870FFF78B
:104910002FF81B4948706846FFF728F99DE8070003
:1049200003AB07C3164988706846FFF71FF99DE877
:10493000070003AB07C3C8B21149C870002413E0D5
:10494000E1B203A8FFF7F2F80398C1B2002000EB30
:104950004400001D0A4A11540498C1B2012000EB22
:104960004400001D1154641CFF2CE9DD72B64FF4A5
:10497000806203490348FDF739FF62B606B010BDF7
:10498000B80000200000010810B586B0AA201D491B
:104990000870FEF7EDFF1B4948706846FFF7E6F820
:1049A0009DE8070003AB07C3164988706846FFF708
:1049B000DDF89DE8070003AB07C3C8B21149C87012
:1049C000002413E0E1B203A8FFF7B0F80398C1B2E6
:1049D000002000EB4400001D0A4A11540498C1B2A3
:1049E000012000EB4400001D1154641CFF2CE9DD84
:1049F00072B64FF4806203490348FDF7F7FE62B6D2
:104A000006B010BDB800002000000108014639B111
:104A10005A2907D0B42907D0B1F5877F09D106E01C
:104A2000012070470020FCE74FF0FF30F9E700203D
:104A3000F7E700BFFEE7014639B15A2907D0B4298C
:104A400007D0B1F5877F09D105E00020704701202C
:104A5000FCE70020FAE74FF0FF30F7E700BFFEE782
:104A600021F00042A2F16052B2F5801F01F0004334
:104A700028BFD2F17F6C0BD95FEA001C43EAC20267
:104A800042EB507018BF704728BF20F001007047FC
:104A9000B2F5801FBCBF184670474FEA410C1CF5A9
:104AA000001F02D2084601F04AB870B500F056FB6C
:104AB00000000089FFF7F6BF4FF00040A0F580002E
:104AC0007047000010B591EA030F48BF83F0004320
:104AD00000F1C884841A71EB030C05D2121943EB60
:104AE0000C03001B61EB0C01DFF824E14FEA1154C9
:104AF000A4EB135C1EEA430F18BF9EEA445F73D019
:104B000023EA0E03DCF1200E21EA045143F4801362
:104B100032D322FA0CFE10EB0E0023FA0CFE41EB0E
:104B20000E01CCF1200E03FA0EFE10EB0E0051F137
:104B30000001B1F5801FCCF1200E32D201EB0451FF
:104B400012FA0EF2BDE8104058BF7047401C38BF43
:104B50005FEA420218BF7047002814BF20F001002E
:104B600041F100014FEA410313F5001F38BF7047C0
:104B7000A1F1C04100F040BB012A43EB0302ACF1BC
:104B8000200CDCF11F0E32BF4FF0000E23FA0CF3A5
:104B900010EB030041EB0451B4EB115FD0D0A1EB5B
:104BA000045101F5801149085FEA300001EB04511E
:104BB0000ED350F1000038BF12FA0EFE08D1BDE846
:104BC0001040C9E7401C38BF5FEA4202CAD1C3E7C0
:104BD000BDE810404FEA410313F5001F38BF70478E
:104BE000A1F1C04100F008BB9EEA445F08D011EA81
:104BF0005E0FBDE8104004BF01F000410020704787
:104C0000BDE8104070B500F0A9FA00BF64FBBE3EDD
:104C10000000E0FF491058BFC1F140415B1058BF90
:104C2000C3F140438B42EFF3008070472DE9C04150
:104C300030B4DFF8A0C23CEA111418BF3CEA1314E8
:104C400000F0EC8081EA03051CEA111444EAD574F3
:104C500018BF1CEA131500F0C780A4EB05044FF041
:104C6000004545EAC12145EAC32341EA505143EAE0
:104C7000525304F17F74994204F500344FEAC02086
:104C80004FEAC22208BF904200F09C804FEA1365B1
:104C90000FF24016765D4FEA134506FB05F7C7F1A4
:104CA000807706FB07F74FEAD737A7FB0368764202
:104CB000C8F58038A7FB06CE38BFA8F1010807FB6E
:104CC00008E64FF0000EA6FB028CE6FB03CEDCF1FB
:104CD000000CCEF1004E38BFAEF1010EA6FB0C5811
:104CE0004FF000074FF00005E6FB0E87A1FB08C65A
:104CF000A0FB07CE16EB0E0645F10005E1FB0765AC
:104D000015F1E04E7EBFA4F580345FEA46066D41A2
:104D100016F1800745F100054FEA17274FEA0666AE
:104D200047EA0567A6F1DE46B6F1805F4FEA152532
:104D30001FD9384624F0010C05EBC471BCF1FE6F9D
:104D400001EB0C1102D8F0BCBDE8008124425CBF2D
:104D500001F5801E9EEAC47F02D4F0BCBDE800814C
:104D6000244238D4F0BCA1F1C041BDE8004100F0BC
:104D700043BA4FEAD22242EA43524FEAD323A7FB77
:104D800002864FEAD02040EA415007FB03661EEA44
:104D90000E0F4FEAD12105FB026658BFA6EB005665
:104DA000B6EB00564FEA520E4EEAC37E18EB0E0EDB
:104DB00056EB530EBDD518EB02085E417F1C55F132
:104DC0000005B6E74FF480154FF000074FF00006DE
:104DD0004FF00008ADE7F0BC4FF0000001F1C0411A
:104DE00001F00041BDE8008111EA0C1F0CEA131527
:104DF00000D00CE013EA0C1F00F025804FF00000FB
:104E0000F0BC81EA030101F00041BDE80081F0BC83
:104E1000BDE8004181EA030100F0EEB9F0BCBDE855
:104E2000004170B500F09AF9097EFC3E00F007B829
:104E300081EA03014FF0000001F00041704781EA70
:104E4000030100F0D9B9F0BCBDE800414FF000000B
:104E500021497047FFFDFBF9F7F5F4F2F0EEEDEBB9
:104E6000E9E8E6E4E3E1E0DEDDDBDAD8D7D5D4D368
:104E7000D1D0CFCDCCCBCAC8C7C6C5C4C2C1C0BFB4
:104E8000BEBDBCBBBAB9B8B7B6B5B4B3B2B1B0AFBA
:104E9000AEADACABAAA9A8A8A7A6A5A4A3A3A2A19E
:104EA000A09F9F9E9D9C9C9B9A9999989797969559
:104EB00095949393929191908F8F8E8E8D8C8C8BF5
:104EC0008B8A89898888878786858584848383827D
:104ED000828181800000FF070000F87F4FEA4103D4
:104EE0004FEA5353A3F58063D3F11E03C8BFD3F138
:104EF000210C0CDD4FF0004242EAC12242EA50523E
:104F000032FA03FC8CEAE17CACEBE1707047102BC9
:104F1000C4BF0020704703F5787CBCF1FF3F04D08C
:104F20006FF0004282EA2100704770B500F016F978
:104F30004992248000207047F2E710F0004248BFF9
:104F40004042B0FA80F310FA03F10AD0C3F11D0316
:104F500003F580634FEA415002EB035202EBD1218B
:104F600070474FF000007047B0FA80F310FA03F179
:104F70000AD0C3F11D0303F580634FEA41504FEAA5
:104F8000035202EBD12170474FF000007047000040
:104F900051EA030C17D41CF5801F58BFBCF5801FC5
:104FA00000F10680994218BF704708BF90427047D1
:104FB00007D711F5801F58BF13F5801F19D49942E8
:104FC0007047894270471CF5801F08D5BCF5801FCB
:104FD000F7D58B4218BF704708BF824270474FF425
:104FE000001C1CEB410F38BF1CEB430F01D28B425E
:104FF000704770B500F0B2F8922449004FF00051AC
:105000004FF08053FFF706BEDFF848C170B51CEAC9
:10501000111E1EBF1CEA13159EEA0C0F95EA0C0F19
:1050200000F06F8081EA030423EA4C134EEAD47E39
:1050300021EA4C1141F4801143F48013AE44A1FBEA
:10504000024CA0FB0365AEF17F7E361955EB0C05D3
:10505000A1FB034C4CF10003A0FB021C16EB0C0659
:10506000654153F10003094218BF46F0010613F4ED
:10507000007F0BD14FEA03314FEA0530340341EA98
:10508000155140EA16506FF003020AE04FEAC321BF
:105090004FEAC520F40241EA555140EA56506FF0FC
:1050A000020202EB2E4201EB025585EACE710AD0D4
:1050B0005FEA440C18BF24F0004450F1000041F1B5
:1050C000000120EAD47040F2FE7C624500D270BD3F
:1050D000A84214BF4FF080444FF04044002E08BF58
:1050E0000024BEF1806FA8BFA1F1C041BDE87040AF
:1050F00080F282804FF0000001F1C04101F00041D8
:1051000070479EEA0C0F0CEA131518BF95EA0C0FB6
:1051100006D04FF0000081EA030E0EF0004170BD92
:1051200000F01CF88900013E00F007B800F009B853
:105130004FEA430C5FEA5C5C08D081EA030100F0AF
:105140005BB84FEA410C5FEA5C5CF6D14FF00000BF
:10515000014970470000FF070000F87F0EF1020EC2
:105160002EF0030E5EF8046B364205D4012A43EBA1
:10517000030515F5001F12D8012841EB010C1CF5A1
:10518000001F0CD80ED14FEAD17C15F5001F0CEB97
:105190004C0C0CF1020C08BF4CEBD37C04E04FF03C
:1051A000080C01E04FEAD37C0CEB4C0526FA05F61F
:1051B00006F00706B6F1040C06D20EEB860CBDE82D
:1051C00070404CF0010C6047DFE80CF0090B020264
:1051D0004FF000414FF00000A1F5002170BD1946CD
:1051E0001046012851EB010418BFD4F5001484BF08
:1051F000002001F0004170BD0808A0F500114FEA41
:105200003101704753EA010C17D41CF5801F58BFB9
:10521000BCF5801F00F106808B4218BF704708BFA5
:105220008242704707D713F5801F58BF11F5801FC2
:1052300019D48B4270479B4270471CF5801F08D5DC
:10524000BCF5801FF7D5994218BF704708BF904240
:1052500070474FF4001C1CEB430F38BF1CEB410F91
:1052600001D2994270470FB40CBC03BCFFF7C1BE1A
:1052700091EA030F10B581F000413FF52BAC83F0AC
:10528000004300F0EFB800002DE9F04101F5801C6B
:10529000BCF5001FC0F2C3804FEA115C21EA0C513B
:1052A0000CF1FD0C41F480115FEA5C0C0CF5C07C44
:1052B00001D3400049413DA4890241EA905187024F
:1052C0008E0E0A0CA45D04FB04F602FB06F6C6F182
:1052D0004046A4FB0662F60D46EA422606FB06F4AB
:1052E000A4FB01235242C3F1404338BF5B1EA6FB1F
:1052F00002420024E6FB0324D20B42EA4446A6FB0A
:105300000623A1FB02E2A3FB07E4A4184FF000026E
:1053100052F10002E3FB01426442C2F1404E38BF49
:10532000AEF1010EA6FB04234FF00002E6FB0E32A5
:10533000A2FB03464FF00004B61954F10004E2FB4F
:105340000264A1FB06E6A4FB07E816EB08064FF093
:10535000000858F10008E4FB01687642C8F14058A3
:1053600038BFA8F10108A2FB06E4A3FB08E52D194C
:105370004FF0000454F10004E2FB0854A1FB05E6E1
:10538000A7FB04E818EB06084FF0000656F10006EC
:10539000E1FB048618F1200556F10006A809A8F1E2
:1053A0001B08B10908F03F08B8F10A0F40EA86600F
:1053B0001CD901EB0C51BDE8F08100BFFCF5EEE813
:1053C000E2DDD8D3CFCBC7C3C0BDB9B6B4B1AEACA4
:1053D000A9A7A5A3A19F9D9B9A9896959392908F1C
:1053E0008D8C8B898887868584838281A0FB006869
:1053F00000FB01F208EB4208B8EB872807D5341808
:1054000058EB0104D5D5401C51F10001D1E7341A05
:1054100078EB0104CDD4401E71F10001C9E75FEAC9
:105420004C0C5FEA9C5C0DD105D34FF0000001F0FD
:105430000041BDE8F081BDE8F04170B5FFF78EFE98
:105440006DDBFFBEBDE8F0414FF000000049704742
:105450000000F87F10B591EA030F48BF83F00043C6
:105460003FF538AB841A71EB030C07D212198CF09C
:10547000004C43EB0C03001B61EB0C01DFF8A4E1D3
:105480004FEA1154A4EB135C1EEA430F18BF9EEAC7
:10549000445F00F0B08023EA6E03524221EA0451D7
:1054A000C3EB6E0338BF5B1EDCF1200E25D322FA5E
:1054B0000CFE10EB0E0043FA0CFE41EB0E01CCF19A
:1054C000200E03FA0EFE10EB0E0051F10001CCF19C
:1054D000200E29D412FA0EF201EB0451BDE810405F
:1054E00058BF7047401C1CBFB2F1004F70470028E6
:1054F0000CBF491C20F00100704712EB020E43EB79
:10550000030218BF4FF0010E4EEA4202ACF1200C2C
:10551000DCF11E0E54D943FA0CFE10EB0E0051F1D3
:10552000FF31CCF11E0ED5D50EF1010E12FA0EFE92
:10553000404141EB010101EB445C5FEA5C5C10D946
:1055400010EBDE7001EB045138BFBEF1004FBDE837
:10555000104018BF704700280CBF491C20F0010004
:10556000704730D24FEAD42C11F5001124F40064B6
:105570001BD0B1FA81F20B3AA41AA41ED2F1200377
:10558000914030FA03F31943904001EBCC71002CA9
:1055900001EB0451BDE81040A8BF704701F1C041C4
:1055A0004FF0000001F000417047B0FA80F310FAAC
:1055B00003F100D110BDE41A173C4805C90AE4E71D
:1055C00001EB045110BD491001EB0451BDE810403E
:1055D0004FEA300002E04FF0000170474A0008BF78
:1055E0000042F8D0B2F5001F28BF704701F000411B
:1055F0004FF0000070479EEA445F07D011EA5E0F4B
:10560000BDE8104004BF002100207047BDE81040F5
:1056100070B5FFF7A3FD00BF40DFF63E83F0004109
:10562000104670470000E0FF43004FEAD30C4FEAFA
:105630003C0C43401FBF40070CF1605113F0FE4F7C
:1056400070471CF0006F03D100200CF00041704740
:105650000CF0004343EA507010B540EACC0000F073
:1056600028FA00BF000000924FEA0001FFF7C4BD16
:105670004FF000414FF00000A1F5002170470000FD
:1056800090EA010F48BF81F0004100F1A082421A68
:105690003CBF801A89184FEAD0524FF07F4C1CEA69
:1056A000410FA2EBD15318BF9CEA026F00F03B8080
:1056B0004FF0004C4CEA00204CEA012121FA03FC97
:1056C00010EB0C0C1ED202F1FF325FEA1C2040EB03
:1056D000C25038BF70471CF07F0F4FEA400C18BF14
:1056E000BCF17F4F38BF7047C3F12003994008BF1A
:1056F00020F00100BCF17F4F38BF7047A0F1C040DF
:1057000000F01DBA4FEA3C00000A40EBC25028BF2F
:105710001CF0FF0F4FEA400CE6D018BFBCF17F4FE2
:1057200038BF7047EAE79CEA026F05D010EA5C0FC9
:1057300008BF00F00040704710B500F0BAF900BF94
:1057400064FBBE3E401058BFC0F14040491058BFF6
:10575000C1F140418142EFF3008070474FF47F0C6C
:105760001CEAD0121EBF1CEAD11392EA0C0F93EA76
:105770000C0F00F0858090EA010F48BF42F4807260
:1057800040F4000C41F400002CF07F4120F07F40F9
:1057900000B58142A2EB03020FF2081CACEB504EA5
:1057A000C0F100009EF800E04FEA4E0E00FB0EFC38
:1057B00038BF49004FEA2C1C02F5FA020CFB0EF32D
:1057C0004FEACE1E4FEA112C4FEAC1210EEB635E69
:1057D00042EB22420EFB0CFC4FEA1C5300FB031170
:1057E0004FEA112C4FEA01310EFB0CFC4FEADC4C66
:1057F00000FB0C11C14228BF09184CEB03335DF8C4
:1058000004EB10EB410143EBC250B2F57C0F38BF03
:10581000704729D512F0F00F1CBF00F1C04000F016
:1058200000407047008182838485868788898B8CBD
:105830008D8E8F919293959697999A9C9D9FA0A2F9
:10584000A3A5A7A8AAACAEB0B2B3B5B7B9BCBEC049
:10585000C2C5C7C9CCCED1D4D7D9DCDFE2E6E9ECEA
:10586000F0F3F7FAFE0000004FEA400C0CF1807CE8
:10587000BCF17E4F28BF7047B0F1C04000F05FB967
:1058800090EA010F0CEAD11348BF42F480726245DE
:1058900038BF634507D213F47F0F16D080EA0100AA
:1058A00000F00040704710B500F003F9097EFC3E9F
:1058B00000F005B880EA010000F00040704780EA7F
:1058C000010000F0004000F03AB912F47F0F04BF6D
:1058D0000248704780EA010000F031B90000C07F43
:1058E00041000B0ED3F19E0208D950F400034FEA99
:1058F000032323FA02F048BF4042704710B500F07E
:10590000D8F800BF49922480002070476FF0004211
:1059100082EA20007047000010F0004148BF40427A
:10592000B0FA80F310FA03F2C3F19D030BD051EAF1
:10593000C35101EB1220530638BF704700F101003C
:1059400008BF20F00100704750EA010C00F11380FD
:105950001CF5000F58BFBCF5000F01D488427047FA
:1059600007D710F5000F58BF11F5000F15D4884266
:105970007047894270471CF5000F04D5BCF5000F35
:10598000F7D5814270474FF0807C1CEB400F38BF49
:105990001CEB410F01D28142704710B500F089F82D
:1059A000922449004FF000504FF08051FFF7CABEDB
:1059B0004FF47F0C1CEAD0121EBF1CEAD11392EAEE
:1059C0000C0F93EA0C0F00F0478090EA010F48BFDC
:1059D00042F480724FF0004C4CEA00204CEA012166
:1059E00002EB0302A0FB0113A2F50002002918BF7D
:1059F00043F001035B0028BF4FEA330342EB22422E
:105A00005FEA132C4CEBC2502EBFBCEB436FB2F5D8
:105A10007C0F70474FEA036CBCF1004F08BF20F0C9
:105A20000100B2F57C0F38BF70470BD582F0FF0242
:105A300012F5803FC8BF704700F1C040D8BF00F0EA
:105A40000040704700F5000C5FEA4C0C48BF7047FF
:105A5000B0F1C04000F073B890EA010F0CEAD11326
:105A600048BF42F48072624538BF634504D280EA81
:105A7000010000F00040704710B500F01AF800BFB8
:105A80008900013E00F007B800F009B85FEA410C58
:105A90005FEA1C6C08D080EA010000F050B85FEAB1
:105AA000400C5FEA1C6CF6D14FF00040A0F580007E
:105AB00070470EF1020E2EF0030E5EF8044B2442E6
:105AC00004D44FEA4102B2F17F4F11D84FEA4003AC
:105AD000B3F17F4F0CD80ED14FEAD07CB2F17F4F9B
